:100000000C9434000C94D9020C9451000C945100BF
:100010000C9451000C9451000C9451000C9451001C
:100020000C9451000C9451000C9451000C9451000C
:100030000C9451000C9451000C946E050C945100DA
:100040000C9451000C9451000C9451000C945100EC
:100050000C9451000C949A000C9451000C94510093
:100060000C9451000C94510011241FBECFEFD8E026
:10007000DEBFCDBF12E0A0E0B1E0E0E4F3E102C0FA
:1000800005900D92A430B107D9F722E0A4E0B2E0C8
:1000900001C01D92A83BB207E1F70E9416030C9421
:1000A0009E090C94000080E480937C00EAE7F0E075
:1000B00084E88083808188608083EBE7F0E0808142
:1000C0008560808380818D7F808320E00FC0822FB8
:1000D00090E0880F991FFC01EE5AFD4F11821082AB
:1000E000FC01E85FFD4F118210822F5F253278F30B
:1000F00010920702109206021092040210929C02C3
:100100000895EAE7F0E08081806280830895EAE75D
:10011000F0E080818F7D808308958F70806480936C
:100120007C0008950E948D00EAE7F0E08081806401
:10013000808308951F920F920FB60F9211242F9370
:100140003F934F935F936F937F938F939F93AF935F
:10015000BF93EF93FF9380919C02811111C0E091B6
:100160000502F0E08091780090917900EE0FFF1F7A
:10017000EE5AFD4F9183808381E080939C0234C0CE
:1001800080919C028130E1F4E0910502F0E08091E1
:10019000780090917900EE0FFF1FE85FFD4F91838B
:1001A000808310929C02809105028F5F80930502EC
:1001B000809105028532C0F082E080939C0214C0D9
:1001C00080919C02823081F4809178009091790036
:1001D000909307028093060281E00E949E030E9492
:1001E00064050E94870014C080919C02811103C0A5
:1001F0000E948D000DC080919C02813019F40E94F4
:100200008D0006C080919C02823011F40E948D0006
:10021000FF91EF91BF91AF919F918F917F916F91DE
:100220005F914F913F912F910F900FBE0F901F90B4
:10023000189527E030E019C0482F50E0022E02C088
:10024000559547950A94E2F740FF04C098B1906134
:1002500098B903C098B19F7E98B998B1986098B941
:1002600098B1977F98B92150310933232CF708951D
:1002700088B1806288B988B18F7D88B908958BB1C3
:1002800080618BB98BB180628BB98BB180648BB983
:100290008BB180688BB90895813051F028F082309D
:1002A00059F0833069F008958BB18F7E8BB9089532
:1002B0008BB18F7D8BB908958BB18F7B8BB90895EE
:1002C0008BB18F778BB908958091A6028F5F809351
:1002D000A6028091A602843010F01092A602089522
:1002E00087B1886087B987B1806187B987B180623B
:1002F00087B988B1877F88B988B18F7E88B988B17E
:100300008F7D88B98AB180618AB98AB180628AB9E1
:100310008AB180648AB98AB180688AB98BB18061F8
:100320008BB98BB180628BB98BB180648BB98BB187
:1003300080688BB90895E091A602F0E0E955FD4F81
:1003400080810E9419010E943F010E943801809122
:10035000A6020E944C010E9464010895FF920F932F
:100360001F93CF93DF93AC01F62E9C013695279512
:100370003695279536952795A5ECB0E20E947B0926
:10038000FC01F295E295EF70EF27FF70EF279F01D8
:10039000ADECBCEC0E947B09969587959695879568
:1003A000969587959C01220F331F880F991F880F00
:1003B000991F880F991F820F931F9F01281B390BCC
:1003C000C9019927FC01EF5FFE4F808107EA12E027
:1003D000F80180839A013695279536952795ABE7E6
:1003E000B4E10E947B09FC01F695E7959F01ADEC15
:1003F000BCEC0E947B099695879596958795969576
:1004000087959C01220F331F880F991F880F991F12
:10041000880F991F820F931F9F01281B390BC90159
:100420009927FC01EF5FFE4F8081F80181839A01DB
:100430000E947B09EC01D695C795D695C795D695B0
:10044000C7959E010E947B099695879596958795FD
:10045000969587959C01220F331F880F991F880F4F
:10046000991F880F991F820F931F9E01281B390B1C
:10047000C9019927FC01EF5FFE4F8081F80182835B
:10048000CE01880F991FCC0FDD1FCC0FDD1FCC0FC5
:10049000DD1FC80FD91FFA01EC1BFD0BFF27EF5F13
:1004A000FE4F8081F80183838FEF8F0D843040F4FD
:1004B000E4E0EF19F0E0E955FD4F8081806880832A
:1004C000DF91CF911F910F91FF9008951092A50297
:1004D0001092A1021092A2021092A3021092A40202
:1004E00010929D0210929E0210929F021092A00202
:1004F0000895E7EAF2E080E8808381838283838342
:1005000008950E949803882309F441C08091A502B0
:10051000813099F018F08230F9F029C00E948603EA
:100520009C01220F331F880F991F880F991F880F76
:10053000991F820F931F61E01DC00E948B039C01D5
:10054000220F331F880F991F880F991F880F991F3B
:10055000820F931F61E00EC00E94900324E6AC015D
:10056000249FC001259F900D112462E003C060E02C
:1005700080E090E00E94AE018091A50290E001969B
:1005800063E070E00E9445098093A50208950E94EF
:10059000790208958AB18B7F8AB98BB184608BB957
:1005A000E9E6F0E08081836080838DB381608DBB5C
:1005B00008951F920F920FB60F9211242F933F931D
:1005C0004F935F936F937F938F939F93AF93BF935B
:1005D000EF93FF930E94A1038130B9F48BE091E087
:1005E0000E94A4051092050210929C0280E00E94D5
:1005F000A40380E00E949E030E9457050E94810090
:100600000E946A0580E00E949200FF91EF91BF91E5
:10061000AF919F918F917F916F915F914F913F919A
:100620002F910F900FBE0F901F9018958CE00E9495
:1006300092050E9453000E9470010E9438050E949A
:1006400041050E94CA020E9466020E9443037894F8
:100650000E949B03813049F48DE191E00E94A40542
:100660000E94A70380E00E949E030E9481020E94D4
:100670006C062FE78AE196E0215080409040E1F738
:1006800000C00000E5CF80E001C08F5F8436E8F352
:100690001092B1021092B0021092AF021092AE020C
:1006A0001092AD021092AC021092AB0281E08093E6
:1006B0000001089570E0DB01A150B048AA0FBB1FF4
:1006C000A80FB91F2D913C91660F771FFC01E60F13
:1006D000F71F80819181820F931F969587950895CA
:1006E00070E0DB01AA0FBB1FA80FB91F2D913C9131
:1006F0006F5F7F4F660F771FFC01E60FF71F80814A
:100700009181820F931F9695879508958091B002ED
:100710009091B10208958091AE029091AF02089538
:100720008091AC029091AD0208958093AB02089540
:100730008091AB0208958091040208958093040291
:1007400008958091000108958093000108954F92CB
:100750005F926F927F928F929F92AF92BF92CF9251
:10076000DF92EF92FF920F931F93CF9384E391E078
:100770000E94A405609106027091070280E090E05B
:100780000E94CB0740E00E940C0687E891E00E949F
:10079000A405C0E0C12CD12C412C512C3201A12C3C
:1007A000B12CA0C0C330A8F58DE391E00E94A40550
:1007B0006C2F70E080E090E00E94CB0740E00E9448
:1007C0000C0685E491E00E94A4050C2F10E0000FB8
:1007D000111FF801EE5AFD4F6081718180E090E0B9
:1007E0000E94CB0740E00E940C068FE491E00E943B
:1007F000A405F801E85FFD4F6081718180E090E021
:100800000E94CB0740E00E940C0687E891E00E941E
:10081000A4058C2F90E0880F991FFC01EE5AFD4F24
:10082000008111812091060230910702021B130BF7
:10083000FC01E85FFD4FE080F1808091060290911D
:100840000702E81AF90AC330E0F487E591E00E9454
:10085000A405B80180E090E00E94CB0740E00E9430
:100860000C0683E791E00E94A405B70180E090E0C8
:100870000E94CB0740E00E940C0687E891E00E94AE
:10088000A4058FEF8C0F8332F0F46C2F82E592E099
:100890000E9470034C016C2F88E092E00E945A0382
:1008A0009C01029FC001039F900D129F900D112487
:1008B000E89C9001E99C300DF89C300D1124820FCA
:1008C000931FA80EB91E009FC001019F900D900DAF
:1008D0001124480E591E611C711CCE14DF0408F44B
:1008E0006701CF5FC53208F45DCF8EE791E00E94CB
:1008F000A405B60180E090E00E94CB0740E00E9492
:100900000C0686E891E00E94A405B50180E090E025
:100910000E94CB0720E030E04CE852E40E942A0716
:100920000E949C077093B7026093B602C301B201A4
:1009300025E230E040E050E00E94590929013A01E7
:10094000C301B2010E94CB070E94F0080E949C07DD
:100950007093B5026093B402D092B302C092B20217
:100960002091B6023091B702220F331F220F331F9E
:10097000369527953695279536952795A5ECB0E2BF
:100980000E947B09AC01529542954F7045275F70DC
:1009900045272091B4023091B502220F331F220F58
:1009A000331F3695279536952795369527950E94BE
:1009B0007B09FC01F295E295EF70EF27FF70EF27BE
:1009C0002091B2023091B302220F331F220F331F46
:1009D0003695279536952795369527950E947B095C
:1009E0008C01129502950F7001271F700127F89452
:1009F0008AE699E5489F9001499F300D589F300D38
:100A000011243695279536952795369527950E947A
:100A10007B09929582958F7089279F708927909383
:100A2000B1028093B00225E12E9FC0012F9F900D4F
:100A300011249093AF028093AE021093AD02009305
:100A4000AC0281E00E94950381E00E94A4037894A7
:100A5000CF911F910F91FF90EF90DF90CF90BF90BB
:100A6000AF909F908F907F906F905F904F90089580
:100A700082E084BD95E095BD93E197BD80936E00C3
:100A8000089510928000E1E8F0E010828081886093
:100A9000808387ED90E09093890080938800909305
:100AA0008B0080938A008081887F808308951092D4
:100AB000850010928400E1E8F0E08081816080830D
:100AC0008081897F80830895E1E8F0E08081887FDC
:100AD0008083089586B3846086BB08951F920F9229
:100AE0000FB60F9211242F933F934F935F936F9301
:100AF0007F938F939F93AF93BF93EF93FF930E9446
:100B00009B01FF91EF91BF91AF919F918F917F9149
:100B10006F915F914F913F912F910F900FBE0F906A
:100B20001F9018951092C5008093C40088E08093B0
:100B3000C10086E08093C20008959091C00095FFA7
:100B4000FCCF8093C6000895CF93DF93EC0103C0E0
:100B50000E949D05219688818111FACFDF91CF9166
:100B600008951F93CF93DF9300D000D000D0CDB76E
:100B7000DEB7AC01892B91F580E30E949D0542C050
:100B80009A01ADECBCEC0E947B09969587959695F1
:100B90008795969587959C01220F331F880F991F83
:100BA000880F991F880F991F820F931F9A01281B86
:100BB000390BC901E1E0F0E0EC0FFD1FE10FF11D81
:100BC000805D80839A010E947B09AC015695479510
:100BD00056954795569547951F5F01C010E0411502
:100BE000510571F60DC0E12FF0E0319781E090E002
:100BF0008C0F9D1FE80FF91F80810E949D051150E9
:100C00001111F1CF26960FB6F894DEBF0FBECDBFFF
:100C1000DF91CF911F9108958F929F92AF92BF92D3
:100C2000CF92DF92EF92FF921F93CF93DF936B01EE
:100C30007C01142F20E030E0A9010E9425078823C1
:100C40003CF48DE20E949D05F7FAF094F7F8F094D9
:100C5000C701B6010E949C074B015C01CB010E94B9
:100C6000B105112369F18EE20E949D05C501B40111
:100C70000E94CB079B01AC01C701B6010E94B806D8
:100C8000D0E01CC020E030E040E251E40E947D084A
:100C90006B017C010E949C07C62F80E38C0F0E9491
:100CA0009D056C2F70E080E090E00E94CD079B01D5
:100CB000AC01C701B6010E94B806DF5FD11710F37F
:100CC000DF91CF911F91FF90EF90DF90CF90BF9079
:100CD000AF909F908F9008950E9498038823D9F138
:100CE0008AE891E00E94A4050E948603BC0180E08E
:100CF00090E00E94CB0741E00E940C068BE991E056
:100D00000E94A40580EA91E00E94A4050E948B0342
:100D1000BC0180E090E00E94CB0741E00E940C06FD
:100D20008FEA91E00E94A40584EB91E00E94A40563
:100D30000E949003BC0180E090E00E94CB0741E05C
:100D40000E940C0684EC91E00E94A4058AEC91E0DC
:100D50000E94A405089580ED91E00E94A40585EE0F
:100D600091E00E94A4058AEC91E00E94A4050895F8
:100D70005058BB27AA270E94D0060C9443080E9413
:100D8000350838F00E943C0820F039F49F3F19F4F0
:100D900026F40C9432080EF4E095E7FB0C942C0832
:100DA000E92F0E94540858F3BA17620773078407A3
:100DB000950720F079F4A6F50C9476080EF4E095EA
:100DC0000B2EBA2FA02D0B01B90190010C01CA0105
:100DD000A0011124FF27591B99F0593F50F4503EB0
:100DE00068F11A16F040A22F232F342F4427585FA2
:100DF000F3CF469537952795A795F0405395C9F7BA
:100E00007EF41F16BA0B620B730B840BBAF0915071
:100E1000A1F0FF0FBB1F661F771F881FC2F70EC010
:100E2000BA0F621F731F841F48F4879577956795E3
:100E3000B795F7959E3F08F0B0CF9395880F08F0CF
:100E40009927EE0F9795879508950E94080808F452
:100E500081E008950E943E070C9443080E943C08DC
:100E600058F00E94350840F029F45F3F29F00C94B7
:100E70002C0851110C9477080C9432080E945408E5
:100E800068F39923B1F3552391F3951B550BBB27B9
:100E9000AA2762177307840738F09F5F5F4F220FFE
:100EA000331F441FAA1FA9F335D00E2E3AF0E0E8F5
:100EB00032D091505040E695001CCAF72BD0FE2F3F
:100EC00029D0660F771F881FBB1F261737074807D3
:100ED000AB07B0E809F0BB0B802DBF01FF2793588B
:100EE0005F4F3AF09E3F510578F00C942C080C941B
:100EF00077085F3FE4F3983ED4F38695779567953E
:100F0000B795F7959F5FC9F7880F911D96958795BF
:100F100097F90895E1E0660F771F881FBB1F6217DE
:100F200073078407BA0720F0621B730B840BBA0B9C
:100F3000EE1F88F7E09508950E945C0888F09F579F
:100F400098F0B92F9927B751B0F0E1F0660F771FED
:100F5000881F991F1AF0BA95C9F714C0B13091F0E3
:100F60000E947608B1E008950C947608672F782FD8
:100F70008827B85F39F0B93FCCF3869577956795A8
:100F8000B395D9F73EF490958095709561957F4F14
:100F90008F4F9F4F0895E89409C097FB3EF49095BA
:100FA0008095709561957F4F8F4F9F4F9923A9F042
:100FB000F92F96E9BB279395F695879577956795D1
:100FC000B795F111F8CFFAF4BB0F11F460FF1BC015
:100FD0006F5F7F4F8F4F9F4F16C0882311F096E9A8
:100FE00011C0772321F09EE8872F762F05C0662356
:100FF00071F096E8862F70E060E02AF09A95660F0F
:10100000771F881FDAF7880F9695879597F90895C7
:10101000990F0008550FAA0BE0E8FEEF1616170609
:10102000E807F907C0F012161306E407F50798F071
:10103000621B730B840B950B39F40A2661F0232B8A
:10104000242B252B21F408950A2609F4A140A69506
:101050008FEF811D811D089597F99F6780E870E0EB
:1010600060E008959FEF80EC089500240A9416161E
:10107000170618060906089500240A941216130686
:10108000140605060895092E0394000C11F4882314
:1010900052F0BB0F40F4BF2B11F460FF04C06F5F30
:1010A0007F4F8F4F9F4F089557FD9058440F551F06
:1010B00059F05F3F71F04795880F97FB991F61F0DA
:1010C0009F3F79F087950895121613061406551F51
:1010D000F2CF4695F1DF08C0161617061806991FBD
:1010E000F1CF86957105610508940895E894BB27B2
:1010F00066277727CB0197F908950E9490080C94F2
:1011000043080E94350838F00E943C0820F09523DF
:1011100011F00C942C080C94320811240C947708CC
:101120000E94540870F3959FC1F3950F50E0551F2E
:10113000629FF001729FBB27F00DB11D639FAA272C
:10114000F00DB11DAA1F649F6627B00DA11D661F7B
:10115000829F2227B00DA11D621F739FB00DA11D9C
:10116000621F839FA00D611D221F749F3327A00D56
:10117000611D231F849F600D211D822F762F6A2FF2
:1011800011249F5750409AF0F1F088234AF0EE0F57
:10119000FF1FBB1F661F771F881F91505040A9F784
:1011A0009E3F510580F00C942C080C9477085F3F0B
:1011B000E4F3983ED4F3869577956795B795F795C0
:1011C000E7959F5FC1F7FE2B880F911D9695879538
:1011D00097F9089519F416F40C9432080C94300918
:1011E0000E945C08B8F39923C9F3B6F39F57550BD7
:1011F00087FF0E943E090024A0E640EA9001805843
:101200005695979528F4805C660F771F881F20F00D
:1012100026173707480730F4621B730B840B20290D
:1012200031294A2BA69517940794202531254A2762
:1012300058F7660F771F881F20F0261737074807D3
:1012400030F4620B730B840B200D311D411DA095F2
:1012500081F7B901842F9158880F96958795089545
:101260009F3F31F0915020F4879577956795B7951A
:10127000880F911D9695879597F908959150504044
:10128000660F771F881FD2F7089597FB072E16F475
:10129000009407D077FD09D00E948A0907FC05D089
:1012A0003EF4909581959F4F0895709561957F4F7D
:1012B0000895A1E21A2EAA1BBB1BFD010DC0AA1F97
:1012C000BB1FEE1FFF1FA217B307E407F50720F0AF
:1012D000A21BB30BE40BF50B661F771F881F991F2A
:1012E0001A9469F760957095809590959B01AC0173
:1012F000BD01CF010895A29FB001B39FC001A39F7C
:10130000700D811D1124911DB29F700D811D11243E
:10131000911D0895AA1BBB1B51E107C0AA1FBB1F4B
:10132000A617B70710F0A61BB70B881F991F5A9571
:10133000A9F780959095BC01CD010895F894FFCF51
:10134000013F065B4F666D7D077F6F494E5430202D
:10135000747269676765726564210D0A00414443D0
:101360002073616D706C6520636F6D706C65746562
:10137000210D0A004F66667365743A200053616D53
:10138000706C655B005D3A20565F7261773D0020AE
:10139000495F7261773D0020204166746572207359
:1013A000756274726163743A20765F73616D706CFC
:1013B000653D0020695F73616D706C653D00202D97
:1013C0002D2D2D2D3E00200D0A004176657261679E
:1013D0006520506F776572203D200020570D0A0070
:1013E000524D5320566F6C74616765203D2000207C
:1013F000560D0A005065616B2043757272656E74FC
:10140000203D2000206D410D0A002D2D2D0D0A00DC
:101410004E6F205369676E616C2044657465637418
:1014200065640D0A0057616974696E6720666F72A2
:1014300020494E543020747269676765722E2E2ED3
:041440000D0A000091
:00000001FF
